:020000040000FA
:100000000C9463000C948B000C948B000C948B006C
:100010000C948B000C948B000C948B000C948B0034
:100020000C948B000C948B000C948B000C948B0024
:100030000C948B000C948B000C948B000C948B0014
:100040000C94D1030C948B000C949F030C947903B3
:100050000C948B000C948B000C948B000C948B00F4
:100060000C948B000C948B000000000024002700EF
:100070002A0000000000250028002B0000000000DE
:1000800023002600290004040404040404040202DA
:100090000202020203030303030301020408102007
:1000A0004080010204081020010204081020000012
:1000B0000008000201000003040700000000000027
:1000C00000005704B00611241FBECFEFD8E0DEBFFA
:1000D000CDBF11E0A0E0B1E0EAE4F4E102C0059098
:1000E0000D92AC32B107D9F721E0ACE2B1E001C02A
:1000F0001D92AE3EB207E1F710E0C2E6D0E004C0C8
:100100002197FE010E942008C136D107C9F70E943D
:100110008F040C94180A0C940000AF92BF92CF92F7
:10012000DF92EF92FF920F931F93CF93DF936C01B7
:100130007B018B01040F151FEB015E01AE18BF0898
:10014000C017D10759F06991D601ED91FC9101904A
:10015000F081E02DC6010995892B79F7C501DF9162
:10016000CF911F910F91FF90EF90DF90CF90BF90B4
:10017000AF900895FC01538D448D252F30E0842FDE
:1001800090E0821B930B541710F0CF9608950197BF
:100190000895FC01918D828D981761F0A28DAE0FAC
:1001A000BF2FB11D5D968C91928D9F5F9F73928F33
:1001B00090E008958FEF9FEF0895FC01918D828D5F
:1001C000981731F0828DE80FF11D858D90E008952C
:1001D0008FEF9FEF0895FC01918D228D892F90E084
:1001E000805C9F4F821B91098F739927089581E44A
:1001F00091E00E94EB0021E0892B09F420E0822F9E
:10020000089580E090E0892B29F00E94F700811189
:100210000C9400000895FC01A48DA80FB92FB11D06
:10022000A35ABF4F2C91848D90E001968F7399272C
:10023000848FA689B7892C93A089B1898C9183700A
:1002400080648C93938D848D981306C00288F38903
:10025000E02D80818F7D80830895EF92FF920F9330
:100260001F93CF93DF93EC0181E0888F9B8D8C8D62
:1002700098131AC0E889F989808185FF15C09FB756
:10028000F894EE89FF896083E889F9898081837019
:10029000806480839FBF81E090E0DF91CF911F91C8
:1002A0000F91FF90EF900895F62E0B8D10E00F5FE9
:1002B0001F4F0F731127E02E8C8D8E110CC00FB6BF
:1002C00007FCFACFE889F989808185FFF5CFCE0157
:1002D0000E940B01F1CFEB8DEC0FFD2FF11DE35AC6
:1002E000FF4FF0829FB7F8940B8FEA89FB898081DA
:1002F0008062CFCFCF93DF93EC01888D8823B9F054
:10030000AA89BB89E889F9898C9185FD03C0808120
:1003100086FD0DC00FB607FCF7CF8C9185FFF2CF9D
:10032000808185FFEDCFCE010E940B01E9CFDF91E7
:10033000CF910895833081F028F4813099F0823094
:10034000A9F008958730A9F08830C9F08430B1F45D
:10035000809180008F7D03C0809180008F77809393
:100360008000089584B58F7784BD089584B58F7D0E
:10037000FBCF8091B0008F778093B000089580917B
:10038000B0008F7DF9CFCF93DF93282F30E0F901B4
:10039000E255FF4F8491F901E656FF4FD491F901E0
:1003A000EA57FF4FC491CC23A1F081110E949A011A
:1003B000EC2FF0E0EE0FFF1FE458FF4FA591B49132
:1003C000EC91ED2381E090E009F480E0DF91CF91A2
:1003D000089580E090E0FACF1F93CF93DF93282F0A
:1003E00030E0F901E255FF4F8491F901E656FF4FE5
:1003F000D491F901EA57FF4FC491CC23A9F0162FED
:1004000081110E949A01EC2FF0E0EE0FFF1FEE58D1
:10041000FF4FA591B4918FB7F894EC91111108C0DA
:10042000D095DE23DC938FBFDF91CF911F9108958C
:10043000DE2BF8CFCF93DF9390E0FC01E656FF4F21
:1004400024918A579F4FFC0184918823D1F090E03A
:10045000880F991FFC01E859FF4FA591B491FC0149
:10046000EE58FF4FC591D49161110EC09FB7F8941B
:100470008C91E22FE0958E238C932881E223E883F0
:100480009FBFDF91CF9108958FB7F894EC91E22B45
:10049000EC938FBFF6CF8E50806480937C00809168
:1004A0007A00806480937A0080917A0086FDFCCF88
:1004B000809178009091790008953FB7F8948091E9
:1004C000310190913201A0913301B091340126B5F0
:1004D000A89B05C02F3F19F00196A11DB11D3FBF7C
:1004E000BA2FA92F982F8827BC01CD01620F711D4B
:1004F000811D911D42E0660F771F881F991F4A9545
:10050000D1F708958F929F92AF92BF92CF92DF92D0
:10051000EF92FF924B015C010E945D026B017C0136
:100520000E945D026C197D098E099F09683E734027
:1005300081059105A8F321E0821A9108A108B1086C
:1005400088EEC80E83E0D81EE11CF11C81149104D2
:10055000A104B10429F7FF90EF90DF90CF90BF90F6
:10056000AF909F908F90089542E050E068E171E075
:1005700081E491E00C948D000F931F93CF93DF9350
:10058000EC0188819981009759F02A813B812617D7
:10059000370730F081E0DF91CF911F910F910895DF
:1005A0008B016F5F7F4F0E944B09009759F0998331
:1005B00088831B830A832C813D81232B59F7FC01FF
:1005C0001082E8CF80E0E7CF0F931F93CF93DF93A4
:1005D000009731F480E0DF91CF911F910F91089542
:1005E00061157105F9F08C01C091E201D091E30130
:1005F000C60FD71FBE018EED91E00E94BC0288237A
:1006000049F32091DE013091DF018091E201909168
:10061000E301B801820F931F0E94110AD093E301F6
:10062000C093E20181E0D7CF0F931F93CF93DF9365
:10063000CDB7DEB728970FB6F894DEBF0FBECDBF9B
:100640004AE08E010F5F1F4FB8010E94C106F801FA
:1006500001900020E9F73197BF01601B710BC801C1
:100660000E94E40228960FB6F894DEBF0FBECDBFFD
:10067000DF91CF911F910F91089561E070E08BE1C0
:1006800091E00C94E402EF92FF920F931F93CF93AB
:10069000DF93EC017B01FB0101900020E9F731972A
:1006A0008F01061B170BB8010E94BC0228813981FB
:1006B000811113C02115310519F0C9010E94C2082A
:1006C000198218821D821C821B821A82DF91CF91AF
:1006D0001F910F91FF90EF9008951D830C83B70138
:1006E000C901DF91CF911F910F91FF90EF900C9472
:1006F000110A1F920F920FB60F9211242F933F935E
:100700004F935F936F937F938F939F93AF93BF9319
:10071000EF93FF9381E491E00E940B01FF91EF9131
:10072000BF91AF919F918F917F916F915F914F9109
:100730003F912F910F900FBE0F901F9018951F9211
:100740000F920FB60F9211242F938F939F93EF93D5
:10075000FF93E0915101F09152018081E0915701A6
:10076000F091580182FD1BC0908180915A018F5FEA
:100770008F7320915B01821741F0E0915A01F0E004
:10078000EF5BFE4F958F80935A01FF91EF919F9100
:100790008F912F910F900FBE0F901F901895808111
:1007A000F4CF1F920F920FB60F9211242F933F9305
:1007B0008F939F93AF93BF9380912D0190912E01C2
:1007C000A0912F01B091300130912C0123E0230F33
:1007D0002D3758F50196A11DB11D20932C01809352
:1007E0002D0190932E01A0932F01B09330018091A1
:1007F000310190913201A0913301B0913401019601
:10080000A11DB11D8093310190933201A09333015A
:10081000B0933401BF91AF919F918F913F912F91F0
:100820000F900FBE0F901F90189526E8230F029689
:10083000A11DB11DD2CFEF92FF920F931F93CF93C3
:10084000DF93EC017B01198218821B821A821D82C0
:100850001C82FB0101900020E9F731978F01061BF4
:10086000170BB8010E94BC0228813981811113C085
:100870002115310519F0C9010E94C2081982188298
:100880001D821C821B821A82DF91CF911F910F91D2
:10089000FF90EF9008951D830C83B701C901DF918C
:1008A000CF911F910F91FF90EF900C94110AE1E40A
:1008B000F1E01382128288EE93E0A0E0B0E084833E
:1008C0009583A683B7838AE091E09183808385EC4A
:1008D00090E09587848784EC90E09787868780EC0A
:1008E00090E0918B808B81EC90E0938B828B82ECFB
:1008F00090E0958B848B86EC90E0978B868B118EA5
:10090000128E138E148E6DE171E084EE91E00E94E0
:100910001B046AE171E08EED91E00C941B04789465
:1009200084B5826084BD84B5816084BD85B58260F4
:1009300085BD85B5816085BD80916E0081608093A5
:100940006E0010928100809181008260809381000E
:10095000809181008160809381008091800081601E
:10096000809380008091B10084608093B100809179
:10097000B00081608093B00080917A0084608093A1
:100980007A0080917A00826080937A0080917A0068
:10099000816080937A0080917A00806880937A00E9
:1009A0001092C100E0915101F091520182E08083E8
:1009B000E0914D01F0914E011082E0914F01F091D4
:1009C000500187E6808310925901E0915501F09122
:1009D000560186E08083E0915301F09154018081BB
:1009E00080618083E0915301F0915401808188609F
:1009F0008083E0915301F09154018081806880836D
:100A0000E0915301F091540180818F7D8083C3E098
:100A100061E08C2F0E941A02CF5FC730C9F760E0F7
:100A20008C2F0E941A02CF5FCE30C9F760E08EE0B3
:100A30000E941A0260E08FE00E941A0260E080E1EA
:100A40000E941A02CC24CA9483E0D82EE12CF12C07
:100A5000C0E0D0E08DE00E94C301892B09F469C198
:100A60008BE00E94C301892BD1F08BE00E94C3016F
:100A7000892BF1F061E086E00E94EC0164EF71E007
:100A800080E090E00E94820260E086E00E94EC013B
:100A900064EF71E080E090E00E948202E6CF8BE09C
:100AA0000E94C301892B21F460E086E00E94EC01E2
:100AB0008AE00E94C301892BD1F08AE00E94C30121
:100AC000892BF1F061E085E00E94EC0164EF71E0B8
:100AD00080E090E00E94820260E085E00E94EC01EC
:100AE00064EF71E080E090E00E948202E6CF8AE04D
:100AF0000E94C301892B21F460E085E00E94EC0193
:100B00008CE00E94C301892B11F18CE00E94C3018B
:100B1000892B51F161E085E00E94EC0161E086E003
:100B20000E94EC0164EF71E080E090E00E9482029C
:100B300060E085E00E94EC0160E086E00E94EC014C
:100B400064EF71E080E090E00E948202DECF8CE0F2
:100B50000E94C301892B41F460E085E00E94EC0112
:100B600060E086E00E94EC0187E00E94C301892BCF
:100B700031F06FE171E084EE91E00E94430388E080
:100B80000E94C301892B31F06AE271E084EE91E0AA
:100B90000E94430389E00E94C301892B31F06DE17B
:100BA00071E084EE91E00E94430364E170E080E034
:100BB00090E00E9482028EE00E944B0228EC30E01E
:100BC000DC010E941908A70196010E945C07CA0176
:100BD000B90164567109810991090E94F806609370
:100BE0003D0170933E0180933F019093400164E189
:100BF00070E080E090E00E9482028FE00E944B0251
:100C000024E630E0DC010E941908A70196010E9449
:100C10005C07CA01B9010E94F8064B015C01809291
:100C2000390190923A01A0923B01B0923C0164E1FB
:100C300070E080E090E00E94820280E10E944B021E
:100C400024E630E0DC010E941908A70196010E9409
:100C50005C07CA01B9010E94F806609335017093E0
:100C60003601809337019093380168EC70E080E0A2
:100C700090E00E9482026091E8017091E901809108
:100C8000E4019091E5010E94E4020E943D03C50148
:100C9000B4010E94E307CB010E9414030E943D03AC
:100CA00060913D0170913E0180913F019091400122
:100CB0000E94E307CB010E9414030E943D03609150
:100CC00035017091360180913701909138010E9471
:100CD000E307CB010E9414034091E2015091E3012C
:100CE0006091DE017091DF0181E491E00E948D004E
:100CF0000E94B40210923501109236011092370111
:100D0000109238016AE171E08EED91E00E94430398
:100D10006EE170E080E090E00E948202209709F48A
:100D200099CE0E94F700882309F494CE0E94000017
:100D300091CE4AE050E061E271E081E491E00E94EE
:100D40008D000E94B4026AE171E08EED91E00E9494
:100D5000430364E170E080E090E00E948202D2CF21
:100D60008091DE019091DF01009711F00E94C2088E
:100D70008091E4019091E501009711F00C94C20874
:100D80000895BB274A3031F4992322F4BDE29095AF
:100D900081959F4F0C94CD06BB27FB015527AA27B1
:100DA000880F991FAA1FA41710F0A41B83955051F8
:100DB000B9F7A05DAA3308F0A95DA193009779F770
:100DC000B111B1931192CB010C94E606DC01FC0148
:100DD000672F71917723E1F7329704C07C916D936F
:100DE00070836291AE17BF07C8F30895E89409C0F5
:100DF00097FB3EF490958095709561957F4F8F4F4E
:100E00009F4F9923A9F0F92F96E9BB279395F69563
:100E1000879577956795B795F111F8CFFAF4BB0FE1
:100E200011F460FF1BC06F5F7F4F8F4F9F4F16C045
:100E3000882311F096E911C0772321F09EE8872FCF
:100E4000762F05C0662371F096E8862F70E060E08B
:100E50002AF09A95660F771F881FDAF7880F969504
:100E6000879597F9089557FD9058440F551F59F0ED
:100E70005F3F71F04795880F97FB991F61F09F3F87
:100E800079F087950895121613061406551FF2CFB0
:100E90004695F1DF08C0161617061806991FF1CF00
:100EA00086957105610508940895E894BB27662727
:100EB0007727CB0197F90895052E97FB1EF4009430
:100EC0000E94730757FD07D00E94B20707FC03D0AA
:100ED0004EF40C94730750954095309521953F4FF3
:100EE0004F4F5F4F089590958095709561957F4F16
:100EF0008F4F9F4F08952F923F924F925F926F9224
:100F00007F928F929F92AF92BF92CF92DF92EF9299
:100F1000FF920F931F93CF93DF93CDB7DEB7CA1B1A
:100F2000DB0B0FB6F894DEBF0FBECDBF09942A8845
:100F3000398848885F846E847D848C849B84AA84ED
:100F4000B984C884DF80EE80FD800C811B81AA817A
:100F5000B981CE0FD11D0FB6F894DEBF0FBECDBF45
:100F6000ED010895A1E21A2EAA1BBB1BFD010DC0C5
:100F7000AA1FBB1FEE1FFF1FA217B307E407F50749
:100F800020F0A21BB30BE40BF50B661F771F881F25
:100F9000991F1A9469F760957095809590959B01BB
:100FA000AC01BD01CF010895A29FB001B39FC00164
:100FB000A39F700D811D1124911DB29F700D811D85
:100FC0001124911D08950E94EA076894B1110C94B0
:100FD000560708950E943B0788F09F5798F0B92F55
:100FE0009927B751B0F0E1F0660F771F881F991F5E
:100FF0001AF0BA95C9F714C0B13091F00E945507A4
:10100000B1E008950C945507672F782F8827B85FB3
:1010100039F0B93FCCF3869577956795B395D9F7B5
:101020003EF490958095709561957F4F8F4F9F4FBF
:1010300008950E94D407B7FF0895821B930B08956B
:10104000EE0FFF1F0590F491E02D09940F931F936D
:10105000CF93DF938230910510F482E090E0E0912D
:10106000EC01F091ED0130E020E0B0E0A0E030973D
:1010700099F42115310509F44AC0281B390B243095
:101080003105D8F58A819B816115710589F1FB01D4
:1010900093838283FE0111C04081518102811381BB
:1010A00048175907E0F04817590799F4109761F06D
:1010B00012960C93129713961C933296CF01DF91E0
:1010C000CF911F910F9108950093EC011093ED01C2
:1010D000F4CF2115310551F04217530738F0A9011B
:1010E000DB019A01BD01DF01F801C1CFEF01F9CFAA
:1010F0009093ED018093EC01CDCFFE01E20FF31F41
:10110000819391932250310939832883D7CF20913D
:10111000EA013091EB01232B41F42091020130913F
:1011200003013093EB012093EA01209100013091FB
:1011300001012115310541F42DB73EB7409104015D
:1011400050910501241B350BE091EA01F091EB0170
:10115000E217F307A0F42E1B3F0B2817390778F08E
:10116000AC014E5F5F4F2417350748F04E0F5F1FED
:101170005093EB014093EA01819391939FCFF0E06C
:10118000E0E09CCFCF93DF930097E9F0FC0132972A
:1011900013821282A091EC01B091ED01ED0130E0DB
:1011A00020E01097A1F420813181820F931F2091BC
:1011B000EA013091EB012817390709F061C0F0937B
:1011C000EB01E093EA01DF91CF910895EA01CE1798
:1011D000DF07E8F54A815B819E0141155105B1F7B2
:1011E000E901FB83EA8349915991C40FD51FEC179C
:1011F000FD0761F4808191810296840F951FE901BA
:1012000099838883828193819B838A83F0E0E0E0E5
:1012100012968D919C9113970097B9F52D913C9161
:101220001197CD010296820F931F2091EA01309110
:10123000EB012817390739F6309751F51092ED0177
:101240001092EC01B093EB01A093EA01BCCFD383E1
:10125000C28340815181840F951FC817D90761F45B
:101260004E5F5F4F88819981480F591F518340839A
:101270008A819B81938382832115310509F0B0CF48
:10128000F093ED01E093EC019ECFFD01DC01C0CFB6
:1012900013821282D7CFB0E0A0E0E1E5F9E00C9430
:1012A0007D078C01009751F4CB010E9426088C0128
:1012B000C801CDB7DEB7E0E10C949907FC01E60F59
:1012C000F71F9C0122503109E217F30708F49DC073
:1012D000D901CD91DC911197C617D70798F0C53089
:1012E000D10530F3CE0104978617970708F3C61B84
:1012F000D70B2297C193D1936D937C93CF010E941A
:10130000C208D6CF5B01AC1ABD0A4C018C0E9D1EE3
:10131000A091EC01B091ED01512C412CF12CE12C6C
:10132000109731F58091EA019091EB0188159905AC
:1013300009F05CC04616570608F058C080910001BD
:1013400090910101009741F48DB79EB7409104013F
:1013500050910501841B950BE817F90708F055C05B
:10136000F093EB01E093EA01F90171836083A0CF70
:101370008D919C91119712966C90129713967C9078
:101380001397A815B90559F56C0142E0C40ED11C9C
:10139000CA14DB0420F1AC014A195B09DA01129688
:1013A000159780F06282738251834083D9016D93D7
:1013B0007C93E114F10471F0D7011396FC93EE9342
:1013C000129776CF22968C0F9D1FF901918380830F
:1013D000F301EFCFF093ED01E093EC0169CF4816F4
:1013E000590608F42C017D01D3019ACFCB010E944C
:1013F00026087C01009749F0AE01B8010E94080A56
:10140000C8010E94C208870153CF10E000E050CF0E
:10141000FB01DC0102C001900D9241505040D8F711
:101420000895FB01DC0101900D920020E1F7089581
:1014300010E0C2E6D0E004C0FE010E942008219620
:10144000C336D107C9F7F894FFCF0000EE01800042
:10145000000000002D018D00BA007A01EB00C900E8
:10146000DD000D0A002C006E007200656E67696E6B
:0614700065206F666600B6
:107E0000112484B714BE81FFF0D085E080938100F7
:107E100082E08093C00088E18093C10086E0809377
:107E2000C20080E18093C4008EE0C9D0259A86E02C
:107E300020E33CEF91E0309385002093840096BBD3
:107E4000B09BFECF1D9AA8958150A9F7CC24DD24C4
:107E500088248394B5E0AB2EA1E19A2EF3E0BF2EE7
:107E6000A2D0813461F49FD0082FAFD0023811F036
:107E7000013811F484E001C083E08DD089C08234E0
:107E800011F484E103C0853419F485E0A6D080C0E4
:107E9000853579F488D0E82EFF2485D0082F10E0AE
:107EA000102F00270E291F29000F111F8ED06801E7
:107EB0006FC0863521F484E090D080E0DECF843638
:107EC00009F040C070D06FD0082F6DD080E0C81688
:107ED00080E7D80618F4F601B7BEE895C0E0D1E017
:107EE00062D089930C17E1F7F0E0CF16F0E7DF06D8
:107EF00018F0F601B7BEE89568D007B600FCFDCFD4
:107F0000A601A0E0B1E02C9130E011968C91119780
:107F100090E0982F8827822B932B1296FA010C0160
:107F200087BEE89511244E5F5F4FF1E0A038BF0790
:107F300051F7F601A7BEE89507B600FCFDCF97BE46
:107F4000E89526C08437B1F42ED02DD0F82E2BD052
:107F50003CD0F601EF2C8F010F5F1F4F84911BD097
:107F6000EA94F801C1F70894C11CD11CFA94CF0C13
:107F7000D11C0EC0853739F428D08EE10CD085E9AC
:107F80000AD08FE07ACF813511F488E018D01DD067
:107F900080E101D065CF982F8091C00085FFFCCF94
:107FA0009093C60008958091C00087FFFCCF809118
:107FB000C00084FD01C0A8958091C6000895E0E648
:107FC000F0E098E1908380830895EDDF803219F02E
:107FD00088E0F5DFFFCF84E1DECF1F93182FE3DFCA
:107FE0001150E9F7F2DF1F91089580E0E8DFEE27F6
:047FF000FF270994CA
:027FFE00040479
:00000001FF
